{
  "contractName": "CompanyRegistry",
  "abi": [
    {
      "anonymous": false,
      "inputs": [
        {
          "indexed": true,
          "internalType": "address",
          "name": "walletAddress",
          "type": "address"
        },
        {
          "indexed": false,
          "internalType": "string",
          "name": "name",
          "type": "string"
        }
      ],
      "name": "CompanyAdded",
      "type": "event"
    },
    {
      "anonymous": false,
      "inputs": [
        {
          "indexed": true,
          "internalType": "address",
          "name": "company1",
          "type": "address"
        },
        {
          "indexed": true,
          "internalType": "address",
          "name": "company2",
          "type": "address"
        },
        {
          "indexed": false,
          "internalType": "bool",
          "name": "isPartnership",
          "type": "bool"
        }
      ],
      "name": "EcosystemUpdated",
      "type": "event"
    },
    {
      "anonymous": false,
      "inputs": [
        {
          "indexed": true,
          "internalType": "address",
          "name": "includer",
          "type": "address"
        },
        {
          "indexed": true,
          "internalType": "address",
          "name": "includee",
          "type": "address"
        }
      ],
      "name": "Exclude",
      "type": "event"
    },
    {
      "anonymous": false,
      "inputs": [
        {
          "indexed": true,
          "internalType": "address",
          "name": "includer",
          "type": "address"
        },
        {
          "indexed": true,
          "internalType": "address",
          "name": "includee",
          "type": "address"
        }
      ],
      "name": "Include",
      "type": "event"
    },
    {
      "anonymous": false,
      "inputs": [
        {
          "indexed": true,
          "internalType": "address",
          "name": "observer",
          "type": "address"
        },
        {
          "indexed": true,
          "internalType": "address",
          "name": "includedCompany",
          "type": "address"
        },
        {
          "indexed": true,
          "internalType": "address",
          "name": "otherParty",
          "type": "address"
        },
        {
          "indexed": false,
          "internalType": "bool",
          "name": "included",
          "type": "bool"
        }
      ],
      "name": "IncludeeStatusUpdate",
      "type": "event"
    },
    {
      "inputs": [
        {
          "internalType": "address",
          "name": "",
          "type": "address"
        }
      ],
      "name": "companies",
      "outputs": [
        {
          "internalType": "string",
          "name": "name",
          "type": "string"
        },
        {
          "internalType": "address",
          "name": "walletAddress",
          "type": "address"
        },
        {
          "internalType": "string",
          "name": "profilePhoto",
          "type": "string"
        },
        {
          "internalType": "bool",
          "name": "hasToken",
          "type": "bool"
        },
        {
          "internalType": "string",
          "name": "tokenName",
          "type": "string"
        }
      ],
      "stateMutability": "view",
      "type": "function",
      "constant": true
    },
    {
      "inputs": [
        {
          "internalType": "uint256",
          "name": "",
          "type": "uint256"
        }
      ],
      "name": "companyAddresses",
      "outputs": [
        {
          "internalType": "address",
          "name": "",
          "type": "address"
        }
      ],
      "stateMutability": "view",
      "type": "function",
      "constant": true
    },
    {
      "inputs": [
        {
          "internalType": "address",
          "name": "",
          "type": "address"
        },
        {
          "internalType": "address",
          "name": "",
          "type": "address"
        }
      ],
      "name": "ecoMapping",
      "outputs": [
        {
          "internalType": "bool",
          "name": "includesInEco",
          "type": "bool"
        },
        {
          "internalType": "uint256",
          "name": "createdTimestamp",
          "type": "uint256"
        },
        {
          "internalType": "uint256",
          "name": "removedTimestamp",
          "type": "uint256"
        }
      ],
      "stateMutability": "view",
      "type": "function",
      "constant": true
    },
    {
      "inputs": [
        {
          "internalType": "string",
          "name": "_name",
          "type": "string"
        },
        {
          "internalType": "string",
          "name": "_profilePhoto",
          "type": "string"
        },
        {
          "internalType": "bool",
          "name": "_hasToken",
          "type": "bool"
        },
        {
          "internalType": "string",
          "name": "_tokenName",
          "type": "string"
        }
      ],
      "name": "addCompany",
      "outputs": [],
      "stateMutability": "nonpayable",
      "type": "function"
    },
    {
      "inputs": [
        {
          "internalType": "address",
          "name": "_company2",
          "type": "address"
        },
        {
          "internalType": "bool",
          "name": "_includesInEco",
          "type": "bool"
        }
      ],
      "name": "updateEcosystem",
      "outputs": [],
      "stateMutability": "nonpayable",
      "type": "function"
    },
    {
      "inputs": [],
      "name": "totalCompanies",
      "outputs": [
        {
          "internalType": "uint256",
          "name": "",
          "type": "uint256"
        }
      ],
      "stateMutability": "view",
      "type": "function",
      "constant": true
    },
    {
      "inputs": [
        {
          "internalType": "uint256",
          "name": "index",
          "type": "uint256"
        }
      ],
      "name": "companyAddressAtIndex",
      "outputs": [
        {
          "internalType": "address",
          "name": "",
          "type": "address"
        }
      ],
      "stateMutability": "view",
      "type": "function",
      "constant": true
    },
    {
      "inputs": [
        {
          "internalType": "address",
          "name": "_company1",
          "type": "address"
        },
        {
          "internalType": "address",
          "name": "_company2",
          "type": "address"
        }
      ],
      "name": "getInclusionInfo",
      "outputs": [
        {
          "internalType": "bool",
          "name": "includesInEco",
          "type": "bool"
        },
        {
          "internalType": "uint256",
          "name": "createdTimestamp",
          "type": "uint256"
        },
        {
          "internalType": "uint256",
          "name": "removedTimestamp",
          "type": "uint256"
        }
      ],
      "stateMutability": "view",
      "type": "function",
      "constant": true
    }
  ],
  "bytecode": "0x608060405234801561001057600080fd5b50611b4c806100206000396000f3fe608060405234801561001057600080fd5b50600436106100885760003560e01c8063355e6ce81161005b578063355e6ce81461013d5780633b4cc7a314610171578063996878451461018f578063d59ef98d146101bf57610088565b80630728a0ff1461008d5780630d3c8d38146100bf5780631380d39d146100db578063268215a81461010d575b600080fd5b6100a760048036038101906100a29190610f2b565b6101db565b6040516100b693929190610f9f565b60405180910390f35b6100d960048036038101906100d49190611002565b610289565b005b6100f560048036038101906100f09190610f2b565b610748565b60405161010493929190610f9f565b60405180910390f35b6101276004803603810190610122919061106e565b61078c565b60405161013491906110aa565b60405180910390f35b610157600480360381019061015291906110c5565b61081b565b604051610168959493929190611182565b60405180910390f35b610179610a16565b60405161018691906111ea565b60405180910390f35b6101a960048036038101906101a4919061106e565b610a23565b6040516101b691906110aa565b60405180910390f35b6101d960048036038101906101d4919061133a565b610a62565b005b600080600080600160008773ffffffffffffffffffffffffffffffffffffffff1673ffffffffffffffffffffffffffffffffffffffff16815260200190815260200160002060008673ffffffffffffffffffffffffffffffffffffffff1673ffffffffffffffffffffffffffffffffffffffff16815260200190815260200160002090508060000160009054906101000a900460ff1681600101548260020154935093509350509250925092565b600073ffffffffffffffffffffffffffffffffffffffff166000803373ffffffffffffffffffffffffffffffffffffffff1673ffffffffffffffffffffffffffffffffffffffff16815260200190815260200160002060010160009054906101000a900473ffffffffffffffffffffffffffffffffffffffff1673ffffffffffffffffffffffffffffffffffffffff1603610359576040517f08c379a000000000000000000000000000000000000000000000000000000000815260040161035090611441565b60405180910390fd5b600073ffffffffffffffffffffffffffffffffffffffff166000808473ffffffffffffffffffffffffffffffffffffffff1673ffffffffffffffffffffffffffffffffffffffff16815260200190815260200160002060010160009054906101000a900473ffffffffffffffffffffffffffffffffffffffff1673ffffffffffffffffffffffffffffffffffffffff1603610429576040517f08c379a0000000000000000000000000000000000000000000000000000000008152600401610420906114ad565b60405180910390fd5b8173ffffffffffffffffffffffffffffffffffffffff163373ffffffffffffffffffffffffffffffffffffffff1603610497576040517f08c379a000000000000000000000000000000000000000000000000000000000815260040161048e90611519565b60405180910390fd5b6000600160003373ffffffffffffffffffffffffffffffffffffffff1673ffffffffffffffffffffffffffffffffffffffff16815260200190815260200160002060008473ffffffffffffffffffffffffffffffffffffffff1673ffffffffffffffffffffffffffffffffffffffff16815260200190815260200160002090508115610600578060000160009054906101000a900460ff161561056f576040517f08c379a000000000000000000000000000000000000000000000000000000000815260040161056690611585565b60405180910390fd5b60018160000160006101000a81548160ff0219169083151502179055504281600101819055508273ffffffffffffffffffffffffffffffffffffffff163373ffffffffffffffffffffffffffffffffffffffff167ffb6e90718433df2afd4e08fca8295d091eb8cf8ad6c3dd542e157d56b8528ed260405160405180910390a36105fb33846001610d05565b6106de565b8060000160009054906101000a900460ff16610651576040517f08c379a0000000000000000000000000000000000000000000000000000000008152600401610648906115f1565b60405180910390fd5b60008160000160006101000a81548160ff0219169083151502179055504281600201819055508273ffffffffffffffffffffffffffffffffffffffff163373ffffffffffffffffffffffffffffffffffffffff167f6ac4abc62ee73eaef69fa7f27b7a41b13f583fdeb03279cdb7ffb2c40dd2532860405160405180910390a36106dd33846000610d05565b5b8273ffffffffffffffffffffffffffffffffffffffff163373ffffffffffffffffffffffffffffffffffffffff167f4c35f217abb26448349608de16ed6fceb6410c88398b31bbdb65332b0306addf8460405161073b9190611611565b60405180910390a3505050565b6001602052816000526040600020602052806000526040600020600091509150508060000160009054906101000a900460ff16908060010154908060020154905083565b600060028054905082106107d5576040517f08c379a00000000000000000000000000000000000000000000000000000000081526004016107cc90611678565b60405180910390fd5b600282815481106107e9576107e8611698565b5b9060005260206000200160009054906101000a900473ffffffffffffffffffffffffffffffffffffffff169050919050565b600060205280600052604060002060009150905080600001805461083e906116f6565b80601f016020809104026020016040519081016040528092919081815260200182805461086a906116f6565b80156108b75780601f1061088c576101008083540402835291602001916108b7565b820191906000526020600020905b81548152906001019060200180831161089a57829003601f168201915b5050505050908060010160009054906101000a900473ffffffffffffffffffffffffffffffffffffffff16908060020180546108f2906116f6565b80601f016020809104026020016040519081016040528092919081815260200182805461091e906116f6565b801561096b5780601f106109405761010080835404028352916020019161096b565b820191906000526020600020905b81548152906001019060200180831161094e57829003601f168201915b5050505050908060030160009054906101000a900460ff1690806004018054610993906116f6565b80601f01602080910402602001604051908101604052809291908181526020018280546109bf906116f6565b8015610a0c5780601f106109e157610100808354040283529160200191610a0c565b820191906000526020600020905b8154815290600101906020018083116109ef57829003601f168201915b5050505050905085565b6000600280549050905090565b60028181548110610a3357600080fd5b906000526020600020016000915054906101000a900473ffffffffffffffffffffffffffffffffffffffff1681565b6000845111610aa6576040517f08c379a0000000000000000000000000000000000000000000000000000000008152600401610a9d90611773565b60405180910390fd5b600073ffffffffffffffffffffffffffffffffffffffff166000803373ffffffffffffffffffffffffffffffffffffffff1673ffffffffffffffffffffffffffffffffffffffff16815260200190815260200160002060010160009054906101000a900473ffffffffffffffffffffffffffffffffffffffff1673ffffffffffffffffffffffffffffffffffffffff1614610b76576040517f08c379a0000000000000000000000000000000000000000000000000000000008152600401610b6d906117df565b60405180910390fd5b60008060003373ffffffffffffffffffffffffffffffffffffffff1673ffffffffffffffffffffffffffffffffffffffff168152602001908152602001600020905084816000019081610bc991906119ab565b50338160010160006101000a81548173ffffffffffffffffffffffffffffffffffffffff021916908373ffffffffffffffffffffffffffffffffffffffff16021790555083816002019081610c1e91906119ab565b50828160030160006101000a81548160ff02191690831515021790555081816004019081610c4c91906119ab565b506002339080600181540180825580915050600190039060005260206000200160009091909190916101000a81548173ffffffffffffffffffffffffffffffffffffffff021916908373ffffffffffffffffffffffffffffffffffffffff1602179055503373ffffffffffffffffffffffffffffffffffffffff167fc53242cc8bdea92b6e4068fb5fd1ab329bec0f5ef4fb280d79f8abd812226b0b86604051610cf69190611a7d565b60405180910390a25050505050565b60005b600280549050811015610eb3576001600060028381548110610d2d57610d2c611698565b5b9060005260206000200160009054906101000a900473ffffffffffffffffffffffffffffffffffffffff1673ffffffffffffffffffffffffffffffffffffffff1673ffffffffffffffffffffffffffffffffffffffff16815260200190815260200160002060008473ffffffffffffffffffffffffffffffffffffffff1673ffffffffffffffffffffffffffffffffffffffff16815260200190815260200160002060000160009054906101000a900460ff1615610ea0578373ffffffffffffffffffffffffffffffffffffffff168373ffffffffffffffffffffffffffffffffffffffff1660028381548110610e2757610e26611698565b5b9060005260206000200160009054906101000a900473ffffffffffffffffffffffffffffffffffffffff1673ffffffffffffffffffffffffffffffffffffffff167f9094336d930d47b2738e149217359cf7ba169451367b61dea29114d1cc1d128f85604051610e979190611611565b60405180910390a45b8080610eab90611ace565b915050610d08565b50505050565b6000604051905090565b600080fd5b600080fd5b600073ffffffffffffffffffffffffffffffffffffffff82169050919050565b6000610ef882610ecd565b9050919050565b610f0881610eed565b8114610f1357600080fd5b50565b600081359050610f2581610eff565b92915050565b60008060408385031215610f4257610f41610ec3565b5b6000610f5085828601610f16565b9250506020610f6185828601610f16565b9150509250929050565b60008115159050919050565b610f8081610f6b565b82525050565b6000819050919050565b610f9981610f86565b82525050565b6000606082019050610fb46000830186610f77565b610fc16020830185610f90565b610fce6040830184610f90565b949350505050565b610fdf81610f6b565b8114610fea57600080fd5b50565b600081359050610ffc81610fd6565b92915050565b6000806040838503121561101957611018610ec3565b5b600061102785828601610f16565b925050602061103885828601610fed565b9150509250929050565b61104b81610f86565b811461105657600080fd5b50565b60008135905061106881611042565b92915050565b60006020828403121561108457611083610ec3565b5b600061109284828501611059565b91505092915050565b6110a481610eed565b82525050565b60006020820190506110bf600083018461109b565b92915050565b6000602082840312156110db576110da610ec3565b5b60006110e984828501610f16565b91505092915050565b600081519050919050565b600082825260208201905092915050565b60005b8381101561112c578082015181840152602081019050611111565b60008484015250505050565b6000601f19601f8301169050919050565b6000611154826110f2565b61115e81856110fd565b935061116e81856020860161110e565b61117781611138565b840191505092915050565b600060a082019050818103600083015261119c8188611149565b90506111ab602083018761109b565b81810360408301526111bd8186611149565b90506111cc6060830185610f77565b81810360808301526111de8184611149565b90509695505050505050565b60006020820190506111ff6000830184610f90565b92915050565b600080fd5b600080fd5b7f4e487b7100000000000000000000000000000000000000000000000000000000600052604160045260246000fd5b61124782611138565b810181811067ffffffffffffffff821117156112665761126561120f565b5b80604052505050565b6000611279610eb9565b9050611285828261123e565b919050565b600067ffffffffffffffff8211156112a5576112a461120f565b5b6112ae82611138565b9050602081019050919050565b82818337600083830152505050565b60006112dd6112d88461128a565b61126f565b9050828152602081018484840111156112f9576112f861120a565b5b6113048482856112bb565b509392505050565b600082601f83011261132157611320611205565b5b81356113318482602086016112ca565b91505092915050565b6000806000806080858703121561135457611353610ec3565b5b600085013567ffffffffffffffff81111561137257611371610ec8565b5b61137e8782880161130c565b945050602085013567ffffffffffffffff81111561139f5761139e610ec8565b5b6113ab8782880161130c565b93505060406113bc87828801610fed565b925050606085013567ffffffffffffffff8111156113dd576113dc610ec8565b5b6113e98782880161130c565b91505092959194509250565b7f436f6d70616e79206e6f74207265676973746572656400000000000000000000600082015250565b600061142b6016836110fd565b9150611436826113f5565b602082019050919050565b6000602082019050818103600083015261145a8161141e565b9050919050565b7f436f6d70616e792032206e6f7420726567697374657265640000000000000000600082015250565b60006114976018836110fd565b91506114a282611461565b602082019050919050565b600060208201905081810360008301526114c68161148a565b9050919050565b7f4120636f6d70616e792063616e6e6f7420747275737420697473656c66000000600082015250565b6000611503601d836110fd565b915061150e826114cd565b602082019050919050565b60006020820190508181036000830152611532816114f6565b9050919050565b7f547275737420616c726561647920657869737473000000000000000000000000600082015250565b600061156f6014836110fd565b915061157a82611539565b602082019050919050565b6000602082019050818103600083015261159e81611562565b9050919050565b7f547275737420646f6573206e6f74206578697374000000000000000000000000600082015250565b60006115db6014836110fd565b91506115e6826115a5565b602082019050919050565b6000602082019050818103600083015261160a816115ce565b9050919050565b60006020820190506116266000830184610f77565b92915050565b7f496e646578206f7574206f6620626f756e647300000000000000000000000000600082015250565b60006116626013836110fd565b915061166d8261162c565b602082019050919050565b6000602082019050818103600083015261169181611655565b9050919050565b7f4e487b7100000000000000000000000000000000000000000000000000000000600052603260045260246000fd5b7f4e487b7100000000000000000000000000000000000000000000000000000000600052602260045260246000fd5b6000600282049050600182168061170e57607f821691505b602082108103611721576117206116c7565b5b50919050565b7f4e616d652063616e6e6f7420626520656d707479000000000000000000000000600082015250565b600061175d6014836110fd565b915061176882611727565b602082019050919050565b6000602082019050818103600083015261178c81611750565b9050919050565b7f596f7520616c72656164792068617665206120636f6d70616e79000000000000600082015250565b60006117c9601a836110fd565b91506117d482611793565b602082019050919050565b600060208201905081810360008301526117f8816117bc565b9050919050565b60008190508160005260206000209050919050565b60006020601f8301049050919050565b600082821b905092915050565b6000600883026118617fffffffffffffffffffffffffffffffffffffffffffffffffffffffffffffffff82611824565b61186b8683611824565b95508019841693508086168417925050509392505050565b6000819050919050565b60006118a86118a361189e84610f86565b611883565b610f86565b9050919050565b6000819050919050565b6118c28361188d565b6118d66118ce826118af565b848454611831565b825550505050565b600090565b6118eb6118de565b6118f68184846118b9565b505050565b5b8181101561191a5761190f6000826118e3565b6001810190506118fc565b5050565b601f82111561195f57611930816117ff565b61193984611814565b81016020851015611948578190505b61195c61195485611814565b8301826118fb565b50505b505050565b600082821c905092915050565b600061198260001984600802611964565b1980831691505092915050565b600061199b8383611971565b9150826002028217905092915050565b6119b4826110f2565b67ffffffffffffffff8111156119cd576119cc61120f565b5b6119d782546116f6565b6119e282828561191e565b600060209050601f831160018114611a155760008415611a03578287015190505b611a0d858261198f565b865550611a75565b601f198416611a23866117ff565b60005b82811015611a4b57848901518255600182019150602085019450602081019050611a26565b86831015611a685784890151611a64601f891682611971565b8355505b6001600288020188555050505b505050505050565b60006020820190508181036000830152611a978184611149565b905092915050565b7f4e487b7100000000000000000000000000000000000000000000000000000000600052601160045260246000fd5b6000611ad982610f86565b91507fffffffffffffffffffffffffffffffffffffffffffffffffffffffffffffffff8203611b0b57611b0a611a9f565b5b60018201905091905056fea264697066735822122020553ac319618b08509e3b5edebd38fae684dc40076f3ecea1c9bd1d6bb61bfa64736f6c63430008130033",
  "immutableReferences": {},
  "source": "// SPDX-License-Identifier: MIT\npragma solidity ^0.8.19;\n\ncontract CompanyRegistry {\n    struct Company {\n        string name;\n        address walletAddress;\n        string profilePhoto;\n        bool hasToken;\n        string tokenName;\n    }\n\n    struct Eco {\n        bool includesInEco;\n        uint256 createdTimestamp;\n        uint256 removedTimestamp;\n    }\n\n    mapping(address => Company) public companies;\n    mapping(address => mapping(address => Eco)) public ecoMapping;\n    address[] public companyAddresses;\n\n    // Events\n    event CompanyAdded(address indexed walletAddress, string name);\n    event EcosystemUpdated(address indexed company1, address indexed company2, bool isPartnership);\n    event Include(address indexed includer, address indexed includee);\n    event Exclude(address indexed includer, address indexed includee);\n    event IncludeeStatusUpdate(address indexed observer, address indexed includedCompany, address indexed otherParty, bool included);\n\n    function addCompany(\n        string memory _name,\n        string memory _profilePhoto,\n        bool _hasToken,\n        string memory _tokenName\n    ) external {\n        require(bytes(_name).length > 0, \"Name cannot be empty\");\n        require(companies[msg.sender].walletAddress == address(0), \"You already have a company\");\n\n        Company storage newCompany = companies[msg.sender];\n        newCompany.name = _name;\n        newCompany.walletAddress = msg.sender;\n        newCompany.profilePhoto = _profilePhoto;\n        newCompany.hasToken = _hasToken;\n        newCompany.tokenName = _tokenName;\n\n        companyAddresses.push(msg.sender);\n        emit CompanyAdded(msg.sender, _name);\n    }\n\n    function updateEcosystem(address _company2, bool  _includesInEco) external {\n        require(companies[msg.sender].walletAddress != address(0), \"Company not registered\");\n        require(companies[_company2].walletAddress != address(0), \"Company 2 not registered\");\n        require(msg.sender != _company2, \"A company cannot trust itself\");\n\n        Eco storage record = ecoMapping[msg.sender][_company2];\n\n        if ( _includesInEco) {\n            require(!record.includesInEco, \"Trust already exists\");\n            record.includesInEco = true;\n            record.createdTimestamp = block.timestamp;\n            emit Include(msg.sender, _company2);\n            // Notify observers that trust a company\n            notifyObservers(msg.sender, _company2, true);\n        } else {\n            require(record.includesInEco, \"Trust does not exist\");\n            record.includesInEco = false;\n            record.removedTimestamp = block.timestamp;\n            emit Exclude(msg.sender, _company2);\n            // Notify observers that trust a company\n            notifyObservers(msg.sender, _company2, false);\n        }\n\n        emit EcosystemUpdated(msg.sender, _company2,  _includesInEco);\n    }\n\n    function notifyObservers(address _includer, address _includee, bool _included) internal {\n        for (uint i = 0; i < companyAddresses.length; i++) {\n            if (ecoMapping[companyAddresses[i]][_includee].includesInEco) {\n                emit IncludeeStatusUpdate(companyAddresses[i], _includee, _includer, _included);\n            }\n        }\n    }\n\n    function totalCompanies() external view returns (uint) {\n        return companyAddresses.length;\n    }\n\n    function companyAddressAtIndex(uint index) external view returns (address) {\n        require(index < companyAddresses.length, \"Index out of bounds\");\n        return companyAddresses[index];\n    }\n\n    function getInclusionInfo(address _company1, address _company2) external view returns (bool includesInEco, uint256 createdTimestamp, uint256 removedTimestamp) {\n        Eco storage record = ecoMapping[_company1][_company2];\n        return (record.includesInEco, record.createdTimestamp, record.removedTimestamp);\n    }\n}\n",
  "sourcePath": "/Users/orkhanmirzayev/Desktop/ecosync/chain/contracts/CreateCompany.sol",
  "compiler": {
    "name": "solc",
    "version": "0.8.19+commit.7dd6d404.Emscripten.clang"
  },
  "schemaVersion": "3.4.16",
  "updatedAt": "2023-12-09T03:53:57.657Z",
  "networkType": "ethereum",
  "devdoc": {
    "kind": "dev",
    "methods": {},
    "version": 1
  },
  "userdoc": {
    "kind": "user",
    "methods": {},
    "version": 1
  }
}